S123400000001000000000000000000000000000000000000000000000000000000000008C
S123402000000000000000000000000000000000000000000000000000000000000000007C
S123404000000000000000000000000000000000000000000000000000000000000000005C
S123406000000000000000000000000000000000000000000000000000000000000000003C
S123408000000000000000000000000000000000000000000000000000000000000000001C
S12340a00000000000000000000000000000000000000000000000000000000000000000FC
S12340c00000000000000000000000000000000000000000000000000000000000000000DC
S12340e00000000000000000000000000000000000000000000000000000000000000000BC
S123410000000000000000000000000000000000000000000000000000000000000000009B
S123412000000000000000000000000000000000000000000000000000000000000000007B
S123414000000000000000000000000000000000000000000000000000000000000000005B
S123416000000000000000000000000000000000000000000000000000000000000000003B
S123418000000000000000000000000000000000000000000000000000000000000000001B
S12341a00000000000000000000000000000000000000000000000000000000000000000FB
S12341c00000000000000000000000000000000000000000000000000000000000000000DB
S12341e00000000000000000000000000000000000000000000000000000000000000000BB
S123420000000000000000000000000000000000000000000000000000000000000000009A
S123422000000000000000000000000000000000000000000000000000000000000000007A
S123424000000000000000000000000000000000000000000000000000000000000000005A
S123426000000000000000000000000000000000000000000000000000000000000000003A
S123428000000000000000000000000000000000000000000000000000000000000000001A
S12342a00000000000000000000000000000000000000000000000000000000000000000FA
S12342c00000000000000000000000000000000000000000000000000000000000000000DA
S12342e00000000000000000000000000000000000000000000000000000000000000000BA
S1234300000000000000000000000000000000000000000000000000000000000000000099
S1234320000000000000000000000000000000000000000000000000000000000000000079
S1234340000000000000000000000000000000000000000000000000000000000000000059
S1234360000000000000000000000000000000000000000000000000000000000000000039
S1234380000000000000000000000000000000000000000000000000000000000000000019
S12343a00000000000000000000000000000000000000000000000000000000000000000F9
S12343c00000000000000000000000000000000000000000000000000000000000000000D9
S12343e00000000000000000000000000000000000000000000000000000000000000000B9
S9030000FC
